{
  "address": "0x0f14A612E839F453BB6f2213011ee7084580E8f7",
  "abi": [
    {
      "inputs": [],
      "stateMutability": "nonpayable",
      "type": "constructor"
    },
    {
      "anonymous": false,
      "inputs": [
        {
          "indexed": false,
          "internalType": "address",
          "name": "escrow",
          "type": "address"
        },
        {
          "indexed": false,
          "internalType": "uint256",
          "name": "loanAmount",
          "type": "uint256"
        },
        {
          "indexed": false,
          "internalType": "uint256",
          "name": "lenderAmountAvailable",
          "type": "uint256"
        },
        {
          "indexed": false,
          "internalType": "uint256",
          "name": "startBlock",
          "type": "uint256"
        },
        {
          "indexed": false,
          "internalType": "uint256",
          "name": "amountToPay",
          "type": "uint256"
        },
        {
          "indexed": false,
          "internalType": "uint256",
          "name": "key",
          "type": "uint256"
        },
        {
          "indexed": false,
          "internalType": "bytes",
          "name": "minerActor",
          "type": "bytes"
        }
      ],
      "name": "BorrowOrder",
      "type": "event"
    },
    {
      "anonymous": false,
      "inputs": [
        {
          "indexed": false,
          "internalType": "address",
          "name": "borrower",
          "type": "address"
        }
      ],
      "name": "CheckReputation",
      "type": "event"
    },
    {
      "anonymous": false,
      "inputs": [
        {
          "indexed": false,
          "internalType": "address",
          "name": "lender",
          "type": "address"
        },
        {
          "indexed": false,
          "internalType": "uint256",
          "name": "amount",
          "type": "uint256"
        },
        {
          "indexed": false,
          "internalType": "uint256",
          "name": "key",
          "type": "uint256"
        },
        {
          "indexed": false,
          "internalType": "uint256",
          "name": "endTimestamp",
          "type": "uint256"
        },
        {
          "indexed": false,
          "internalType": "uint256",
          "name": "interestRate",
          "type": "uint256"
        }
      ],
      "name": "LenderPosition",
      "type": "event"
    },
    {
      "inputs": [
        {
          "internalType": "address",
          "name": "borrower",
          "type": "address"
        },
        {
          "internalType": "bytes",
          "name": "minerActorAddress",
          "type": "bytes"
        }
      ],
      "name": "checkIsOwner",
      "outputs": [
        {
          "internalType": "bool",
          "name": "",
          "type": "bool"
        }
      ],
      "stateMutability": "nonpayable",
      "type": "function"
    },
    {
      "inputs": [],
      "name": "checkReputation",
      "outputs": [],
      "stateMutability": "nonpayable",
      "type": "function"
    },
    {
      "inputs": [
        {
          "internalType": "uint256",
          "name": "loanKey",
          "type": "uint256"
        },
        {
          "internalType": "uint256",
          "name": "amount",
          "type": "uint256"
        },
        {
          "internalType": "bytes",
          "name": "minerActorAddress",
          "type": "bytes"
        }
      ],
      "name": "createBorrow",
      "outputs": [],
      "stateMutability": "nonpayable",
      "type": "function"
    },
    {
      "inputs": [
        {
          "internalType": "uint256",
          "name": "duration",
          "type": "uint256"
        },
        {
          "internalType": "uint256",
          "name": "loanInterestRate",
          "type": "uint256"
        }
      ],
      "name": "createLendingPosition",
      "outputs": [],
      "stateMutability": "payable",
      "type": "function"
    }
  ],
  "transactionHash": "0xd1bbde458231a28edb2f9404448cbb8d28ef6f7bf829cf2cf0543031a9173851",
  "args": [],
  "numDeployments": 1,
  "solcInputHash": "174a8d7d39a9b483a24d3bbd836def78",
  "bytecode": "0x608060405234801561001057600080fd5b50614a9e806100206000396000f3fe608060405260043610620000445760003560e01c80630762e27414620000495780630ff44689146200006357806369f3e7111462000083578063fca7886014620000b1575b600080fd5b3480156200005657600080fd5b5062000061620000f5565b005b6200008160048036038101906200007b919062000c8d565b62000130565b005b3480156200009057600080fd5b50620000af6004803603810190620000a9919062000e36565b620002f5565b005b348015620000be57600080fd5b50620000dd6004803603810190620000d7919062000f16565b620006af565b604051620000ec919062000f99565b60405180910390f35b7f06ee66cefe98db22caca38aa6733ad7521f561e2790a0bbc65bac6564e7cb2963360405162000126919062000fc7565b60405180910390a1565b6000341162000176576040517f08c379a00000000000000000000000000000000000000000000000000000000081526004016200016d906200106b565b60405180910390fd5b428211620001bb576040517f08c379a0000000000000000000000000000000000000000000000000000000008152600401620001b29062001103565b60405180910390fd5b60004233600143620001ce919062001154565b40604051602001620001e39392919062001233565b6040516020818303038152906040528051906020012060001c905060405180608001604052803373ffffffffffffffffffffffffffffffffffffffff1681526020013481526020018481526020018381525060008083815260200190815260200160002060008201518160000160006101000a81548173ffffffffffffffffffffffffffffffffffffffff021916908373ffffffffffffffffffffffffffffffffffffffff1602179055506020820151816001015560408201518160020155606082015181600301559050507f78487b58e2cbb4d974f70ea1d6c1aa242893a94970e99ccdfcd3e33403dba65a3334838686604051620002e895949392919062001287565b60405180910390a1505050565b6000808481526020019081526020016000206001015482111580156200032f57506000808481526020019081526020016000206002015442105b62000371576040517f08c379a0000000000000000000000000000000000000000000000000000000008152600401620003689062001334565b60405180910390fd5b600042604051602001620003869190620013a3565b604051602081830303815290604052620003a090620013ff565b60008086815260200190815260200160002060000160009054906101000a900473ffffffffffffffffffffffffffffffffffffffff163384866000808a815260200190815260200160002060020154604051620003fd9062000c30565b6200040d959493929190620014ed565b8190604051809103906000f59050801580156200042e573d6000803e3d6000fd5b50905060026000858152602001908152602001600020819080600181540180825580915050600190039060005260206000200160009091909190916101000a81548173ffffffffffffffffffffffffffffffffffffffff021916908373ffffffffffffffffffffffffffffffffffffffff160217905550620004d281604051602001620004bc919062001551565b60405160208183030381529060405284620006bb565b826000808681526020019081526020016000206001016000828254620004f9919062001154565b92505081905550600160008581526020019081526020016000206040518060a001604052803373ffffffffffffffffffffffffffffffffffffffff1681526020018581526020014281526020016200055062000732565b81526020018373ffffffffffffffffffffffffffffffffffffffff16815250908060018154018082558091505060019003906000526020600020906005020160009091909190915060008201518160000160006101000a81548173ffffffffffffffffffffffffffffffffffffffff021916908373ffffffffffffffffffffffffffffffffffffffff16021790555060208201518160010155604082015181600201556060820151816003015560808201518160040160006101000a81548173ffffffffffffffffffffffffffffffffffffffff021916908373ffffffffffffffffffffffffffffffffffffffff16021790555050507fad1e134c24d89ecbf3aadba14176710d7fe78b1583b7dbbb275eaa9f2c016caa818460008088815260200190815260200160002060010154426200068a62000732565b8988604051620006a197969594939291906200156e565b60405180910390a150505050565b60006001905092915050565b60006200071f600084600067ffffffffffffffff811115620006e257620006e162000cef565b5b6040519080825280601f01601f191660200182016040528015620007155781602001600182028036833780820191505090505b5060008662000737565b90506200072c816200087b565b50505050565b600090565b606060008073fe0000000000000000000000000000000000000373ffffffffffffffffffffffffffffffffffffffff1688856000888a8c604051602001620007859695949392919062001617565b604051602081830303815290604052604051620007a39190620016d4565b600060405180830381855af49150503d8060008114620007e0576040519150601f19603f3d011682016040523d82523d6000602084013e620007e5565b606091505b509150915060011515821515146040518060400160405280601181526020017f6163746f722063616c6c206661696c6564000000000000000000000000000000815250906200086c576040517f08c379a000000000000000000000000000000000000000000000000000000000815260040162000863919062001739565b60405180910390fd5b50809250505095945050505050565b606060008060008480602001905181019062000898919062001847565b925092509250600067ffffffffffffffff168267ffffffffffffffff161480620008d65750607167ffffffffffffffff168267ffffffffffffffff16145b62000918576040517f08c379a00000000000000000000000000000000000000000000000000000000081526004016200090f9062001912565b60405180910390fd5b60008314620009278462000977565b906200096b576040517f08c379a000000000000000000000000000000000000000000000000000000000815260040162000962919062001739565b60405180910390fd5b50809350505050919050565b60606000821215620009b7576200098e82620009eb565b604051602001620009a091906200199c565b6040516020818303038152906040529050620009e6565b620009c282620009eb565b604051602001620009d491906200199c565b60405160208183030381529060405290505b919050565b606060006001620009fc8462000ac4565b01905060008167ffffffffffffffff81111562000a1e5762000a1d62000cef565b5b6040519080825280601f01601f19166020018201604052801562000a515781602001600182028036833780820191505090505b509050600082602001820190505b60011562000ab9578080600190039150507f3031323334353637383961626364656600000000000000000000000000000000600a86061a8153600a858162000aac5762000aab620019c6565b5b0494506000850362000a5f575b819350505050919050565b600080600090507a184f03e93ff9f4daa797ed6e38ed64bf6a1f010000000000000000831062000b26577a184f03e93ff9f4daa797ed6e38ed64bf6a1f010000000000000000838162000b1c5762000b1b620019c6565b5b0492506040810190505b6d04ee2d6d415b85acef8100000000831062000b67576d04ee2d6d415b85acef8100000000838162000b5d5762000b5c620019c6565b5b0492506020810190505b662386f26fc10000831062000b9a57662386f26fc10000838162000b905762000b8f620019c6565b5b0492506010810190505b6305f5e100831062000bc7576305f5e100838162000bbd5762000bbc620019c6565b5b0492506008810190505b612710831062000bf057612710838162000be65762000be5620019c6565b5b0492506004810190505b6064831062000c17576064838162000c0d5762000c0c620019c6565b5b0492506002810190505b600a831062000c27576001810190505b80915050919050565b61307380620019f683390190565b6000604051905090565b600080fd5b600080fd5b6000819050919050565b62000c678162000c52565b811462000c7357600080fd5b50565b60008135905062000c878162000c5c565b92915050565b6000806040838503121562000ca75762000ca662000c48565b5b600062000cb78582860162000c76565b925050602062000cca8582860162000c76565b9150509250929050565b600080fd5b600080fd5b6000601f19601f8301169050919050565b7f4e487b7100000000000000000000000000000000000000000000000000000000600052604160045260246000fd5b62000d298262000cde565b810181811067ffffffffffffffff8211171562000d4b5762000d4a62000cef565b5b80604052505050565b600062000d6062000c3e565b905062000d6e828262000d1e565b919050565b600067ffffffffffffffff82111562000d915762000d9062000cef565b5b62000d9c8262000cde565b9050602081019050919050565b82818337600083830152505050565b600062000dcf62000dc98462000d73565b62000d54565b90508281526020810184848401111562000dee5762000ded62000cd9565b5b62000dfb84828562000da9565b509392505050565b600082601f83011262000e1b5762000e1a62000cd4565b5b813562000e2d84826020860162000db8565b91505092915050565b60008060006060848603121562000e525762000e5162000c48565b5b600062000e628682870162000c76565b935050602062000e758682870162000c76565b925050604084013567ffffffffffffffff81111562000e995762000e9862000c4d565b5b62000ea78682870162000e03565b9150509250925092565b600073ffffffffffffffffffffffffffffffffffffffff82169050919050565b600062000ede8262000eb1565b9050919050565b62000ef08162000ed1565b811462000efc57600080fd5b50565b60008135905062000f108162000ee5565b92915050565b6000806040838503121562000f305762000f2f62000c48565b5b600062000f408582860162000eff565b925050602083013567ffffffffffffffff81111562000f645762000f6362000c4d565b5b62000f728582860162000e03565b9150509250929050565b60008115159050919050565b62000f938162000f7c565b82525050565b600060208201905062000fb0600083018462000f88565b92915050565b62000fc18162000ed1565b82525050565b600060208201905062000fde600083018462000fb6565b92915050565b600082825260208201905092915050565b7f73656e6420736f6d652046494c20746f206372656174652061206c656e64696e60008201527f6720706f736974696f6e00000000000000000000000000000000000000000000602082015250565b600062001053602a8362000fe4565b9150620010608262000ff5565b604082019050919050565b60006020820190508181036000830152620010868162001044565b9050919050565b7f6475726174696f6e206d7573742062652067726561746572207468616e20637560008201527f7272656e742074696d657374616d700000000000000000000000000000000000602082015250565b6000620010eb602f8362000fe4565b9150620010f8826200108d565b604082019050919050565b600060208201905081810360008301526200111e81620010dc565b9050919050565b7f4e487b7100000000000000000000000000000000000000000000000000000000600052601160045260246000fd5b6000620011618262000c52565b91506200116e8362000c52565b925082820390508181111562001189576200118862001125565b5b92915050565b6000819050919050565b620011ae620011a88262000c52565b6200118f565b82525050565b60008160601b9050919050565b6000620011ce82620011b4565b9050919050565b6000620011e282620011c1565b9050919050565b620011fe620011f88262000ed1565b620011d5565b82525050565b6000819050919050565b6000819050919050565b6200122d620012278262001204565b6200120e565b82525050565b600062001241828662001199565b602082019150620012538285620011e9565b60148201915062001265828462001218565b602082019150819050949350505050565b620012818162000c52565b82525050565b600060a0820190506200129e600083018862000fb6565b620012ad602083018762001276565b620012bc604083018662001276565b620012cb606083018562001276565b620012da608083018462001276565b9695505050505050565b7f4c656e64696e6720706f736974696f6e206e6f7420617661696c61626c650000600082015250565b60006200131c601e8362000fe4565b91506200132982620012e4565b602082019050919050565b600060208201905081810360008301526200134f816200130d565b9050919050565b600064ffffffffff82169050919050565b60008160d81b9050919050565b6000620013818262001367565b9050919050565b6200139d620013978262001356565b62001374565b82525050565b6000620013b1828462001388565b60058201915081905092915050565b600081519050919050565b6000819050602082019050919050565b6000620013e9825162001204565b80915050919050565b600082821b905092915050565b60006200140c82620013c0565b826200141884620013cb565b90506200142581620013db565b925060208210156200146857620014637fffffffffffffffffffffffffffffffffffffffffffffffffffffffffffffffff83602003600802620013f2565b831692505b5050919050565b600082825260208201905092915050565b60005b83811015620014a057808201518184015260208101905062001483565b60008484015250505050565b6000620014b982620013c0565b620014c581856200146f565b9350620014d781856020860162001480565b620014e28162000cde565b840191505092915050565b600060a08201905062001504600083018862000fb6565b62001513602083018762000fb6565b8181036040830152620015278186620014ac565b905062001538606083018562001276565b62001547608083018462001276565b9695505050505050565b60006200155f8284620011e9565b60148201915081905092915050565b600060e08201905062001585600083018a62000fb6565b62001594602083018962001276565b620015a3604083018862001276565b620015b2606083018762001276565b620015c1608083018662001276565b620015d060a083018562001276565b81810360c0830152620015e48184620014ac565b905098975050505050505050565b600067ffffffffffffffff82169050919050565b6200161181620015f2565b82525050565b600060c0820190506200162e600083018962001606565b6200163d602083018862001276565b6200164c604083018762001606565b6200165b606083018662001606565b81810360808301526200166f8185620014ac565b905081810360a0830152620016858184620014ac565b9050979650505050505050565b600081905092915050565b6000620016aa82620013c0565b620016b6818562001692565b9350620016c881856020860162001480565b80840191505092915050565b6000620016e282846200169d565b915081905092915050565b600081519050919050565b60006200170582620016ed565b62001711818562000fe4565b93506200172381856020860162001480565b6200172e8162000cde565b840191505092915050565b60006020820190508181036000830152620017558184620016f8565b905092915050565b6000819050919050565b62001772816200175d565b81146200177e57600080fd5b50565b600081519050620017928162001767565b92915050565b620017a381620015f2565b8114620017af57600080fd5b50565b600081519050620017c38162001798565b92915050565b6000620017e0620017da8462000d73565b62000d54565b905082815260208101848484011115620017ff57620017fe62000cd9565b5b6200180c84828562001480565b509392505050565b600082601f8301126200182c576200182b62000cd4565b5b81516200183e848260208601620017c9565b91505092915050565b60008060006060848603121562001863576200186262000c48565b5b6000620018738682870162001781565b93505060206200188686828701620017b2565b925050604084015167ffffffffffffffff811115620018aa57620018a962000c4d565b5b620018b88682870162001814565b9150509250925092565b7f726573706f6e736520636f646563206e6f7420737570706f7274656400000000600082015250565b6000620018fa601c8362000fe4565b91506200190782620018c2565b602082019050919050565b600060208201905081810360008301526200192d81620018eb565b9050919050565b7f6163746f72206572726f7220636f6465202d0000000000000000000000000000815250565b600081905092915050565b60006200197282620016ed565b6200197e81856200195a565b93506200199081856020860162001480565b80840191505092915050565b6000620019a98262001934565b601282019150620019bb828462001965565b915081905092915050565b7f4e487b7100000000000000000000000000000000000000000000000000000000600052601260045260246000fdfe60806040523480156200001157600080fd5b506040516200307338038062003073833981810160405281019062000037919062000316565b846000806101000a81548173ffffffffffffffffffffffffffffffffffffffff021916908373ffffffffffffffffffffffffffffffffffffffff16021790555083600160006101000a81548173ffffffffffffffffffffffffffffffffffffffff021916908373ffffffffffffffffffffffffffffffffffffffff1602179055508260029081620000c99190620005fe565b5081600381905550806004819055505050505050620006e5565b6000604051905090565b600080fd5b600080fd5b600073ffffffffffffffffffffffffffffffffffffffff82169050919050565b60006200012482620000f7565b9050919050565b620001368162000117565b81146200014257600080fd5b50565b60008151905062000156816200012b565b92915050565b600080fd5b600080fd5b6000601f19601f8301169050919050565b7f4e487b7100000000000000000000000000000000000000000000000000000000600052604160045260246000fd5b620001b18262000166565b810181811067ffffffffffffffff82111715620001d357620001d262000177565b5b80604052505050565b6000620001e8620000e3565b9050620001f68282620001a6565b919050565b600067ffffffffffffffff82111562000219576200021862000177565b5b620002248262000166565b9050602081019050919050565b60005b838110156200025157808201518184015260208101905062000234565b60008484015250505050565b6000620002746200026e84620001fb565b620001dc565b90508281526020810184848401111562000293576200029262000161565b5b620002a084828562000231565b509392505050565b600082601f830112620002c057620002bf6200015c565b5b8151620002d28482602086016200025d565b91505092915050565b6000819050919050565b620002f081620002db565b8114620002fc57600080fd5b50565b6000815190506200031081620002e5565b92915050565b600080600080600060a08688031215620003355762000334620000ed565b5b6000620003458882890162000145565b9550506020620003588882890162000145565b945050604086015167ffffffffffffffff8111156200037c576200037b620000f2565b5b6200038a88828901620002a8565b93505060606200039d88828901620002ff565b9250506080620003b088828901620002ff565b9150509295509295909350565b600081519050919050565b7f4e487b7100000000000000000000000000000000000000000000000000000000600052602260045260246000fd5b600060028204905060018216806200041057607f821691505b602082108103620004265762000425620003c8565b5b50919050565b60008190508160005260206000209050919050565b60006020601f8301049050919050565b600082821b905092915050565b600060088302620004907fffffffffffffffffffffffffffffffffffffffffffffffffffffffffffffffff8262000451565b6200049c868362000451565b95508019841693508086168417925050509392505050565b6000819050919050565b6000620004df620004d9620004d384620002db565b620004b4565b620002db565b9050919050565b6000819050919050565b620004fb83620004be565b620005136200050a82620004e6565b8484546200045e565b825550505050565b600090565b6200052a6200051b565b62000537818484620004f0565b505050565b5b818110156200055f576200055360008262000520565b6001810190506200053d565b5050565b601f821115620005ae5762000578816200042c565b620005838462000441565b8101602085101562000593578190505b620005ab620005a28562000441565b8301826200053c565b50505b505050565b600082821c905092915050565b6000620005d360001984600802620005b3565b1980831691505092915050565b6000620005ee8383620005c0565b9150826002028217905092915050565b6200060982620003bd565b67ffffffffffffffff81111562000625576200062462000177565b5b620006318254620003f7565b6200063e82828562000563565b600060209050601f83116001811462000676576000841562000661578287015190505b6200066d8582620005e0565b865550620006dd565b601f19841662000686866200042c565b60005b82811015620006b05784890151825560018201915060208501945060208101905062000689565b86831015620006d05784890151620006cc601f891682620005c0565b8355505b6001600288020188555050505b505050505050565b61297e80620006f56000396000f3fe6080604052600436106101025760003560e01c8063b137bf0f11610095578063d09f7b9611610064578063d09f7b9614610321578063db7148f01461034a578063dfab6ef914610375578063e43d45791461038c578063efbe1c1c146103b557610142565b8063b137bf0f14610275578063b52eea74146102a0578063bcead63e146102cb578063c7c3b1c1146102f657610142565b80633dc1fd99116100d15780633dc1fd99146101cb578063402d8883146102085780637df1f1b91461021f5780639f24a41e1461024a57610142565b8063162075d8146101475780631f2698ab14610172578063232fa7331461019d57806338564792146101b457610142565b36610142577f88a5966d370b9919b20f3e2c13ff65706f196a4e32cc2c12bf57088f885258743334604051610138929190611c00565b60405180910390a1005b600080fd5b34801561015357600080fd5b5061015c6103e0565b6040516101699190611c29565b60405180910390f35b34801561017e57600080fd5b506101876103e6565b6040516101949190611c5f565b60405180910390f35b3480156101a957600080fd5b506101b26103f9565b005b3480156101c057600080fd5b506101c9610522565b005b3480156101d757600080fd5b506101f260048036038101906101ed9190611e36565b6105cf565b6040516101ff9190611f28565b60405180910390f35b34801561021457600080fd5b5061021d610722565b005b34801561022b57600080fd5b50610234610811565b6040516102419190611f4a565b60405180910390f35b34801561025657600080fd5b5061025f610837565b60405161026c9190611c29565b60405180910390f35b34801561028157600080fd5b5061028a61083d565b6040516102979190611faf565b60405180910390f35b3480156102ac57600080fd5b506102b56108cb565b6040516102c29190611c29565b60405180910390f35b3480156102d757600080fd5b506102e06108d1565b6040516102ed9190611f4a565b60405180910390f35b34801561030257600080fd5b5061030b6108f5565b6040516103189190611c5f565b60405180910390f35b34801561032d57600080fd5b5061034860048036038101906103439190611ffd565b610908565b005b34801561035657600080fd5b5061035f610a06565b60405161036c9190611c29565b60405180910390f35b34801561038157600080fd5b5061038a610a2e565b005b34801561039857600080fd5b506103b360048036038101906103ae9190611ffd565b610b18565b005b3480156103c157600080fd5b506103ca610b1b565b6040516103d79190611c29565b60405180910390f35b60075481565b600560009054906101000a900460ff1681565b600560019054906101000a900460ff1661041257600080fd5b6104e76002805461042290612059565b80601f016020809104026020016040519081016040528092919081815260200182805461044e90612059565b801561049b5780601f106104705761010080835404028352916020019161049b565b820191906000526020600020905b81548152906001019060200180831161047e57829003601f168201915b5050505050600160009054906101000a900473ffffffffffffffffffffffffffffffffffffffff166040516020016104d391906120d2565b604051602081830303815290604052610b21565b7f8bd7425acd690cb331b023e4ca1bc43cf34da033b5d90ed208bbee28a0af6ad842476040516105189291906120ed565b60405180910390a1565b60008054906101000a900473ffffffffffffffffffffffffffffffffffffffff1673ffffffffffffffffffffffffffffffffffffffff163373ffffffffffffffffffffffffffffffffffffffff161461057a57600080fd5b600560009054906101000a900460ff161561059457600080fd5b7f8bd7425acd690cb331b023e4ca1bc43cf34da033b5d90ed208bbee28a0af6ad842476040516105c59291906120ed565b60405180910390a1565b6105d7611b59565b600160009054906101000a900473ffffffffffffffffffffffffffffffffffffffff1673ffffffffffffffffffffffffffffffffffffffff163373ffffffffffffffffffffffffffffffffffffffff16148061067e575060008054906101000a900473ffffffffffffffffffffffffffffffffffffffff1673ffffffffffffffffffffffffffffffffffffffff163373ffffffffffffffffffffffffffffffffffffffff16145b61068757600080fd5b61071b6002805461069790612059565b80601f01602080910402602001604051908101604052809291908181526020018280546106c390612059565b80156107105780601f106106e557610100808354040283529160200191610710565b820191906000526020600020905b8154815290600101906020018083116106f357829003601f168201915b505050505083610b54565b9050919050565b61072a610a06565b42101561076c576040517f08c379a000000000000000000000000000000000000000000000000000000000815260040161076390612173565b60405180910390fd5b4260068190555060035447106107bc577f290f3a5f209c00a9d1f1b83c1ac49d9379b571a71c9099f1f5900f06f3d48a9c426003546040516107af9291906120ed565b60405180910390a161080f565b6001600560016101000a81548160ff0219169083151502179055507f11266f88fd2ad438881f6683b8be42fdb270727830ecc2893860af477ec37f67426040516108069190611c29565b60405180910390a15b565b600160009054906101000a900473ffffffffffffffffffffffffffffffffffffffff1681565b60035481565b6002805461084a90612059565b80601f016020809104026020016040519081016040528092919081815260200182805461087690612059565b80156108c35780601f10610898576101008083540402835291602001916108c3565b820191906000526020600020905b8154815290600101906020018083116108a657829003601f168201915b505050505081565b60065481565b60008054906101000a900473ffffffffffffffffffffffffffffffffffffffff1681565b600560019054906101000a900460ff1681565b600160009054906101000a900473ffffffffffffffffffffffffffffffffffffffff1673ffffffffffffffffffffffffffffffffffffffff163373ffffffffffffffffffffffffffffffffffffffff161461096257600080fd5b4781111561096f57600080fd5b610a036002805461097f90612059565b80601f01602080910402602001604051908101604052809291908181526020018280546109ab90612059565b80156109f85780601f106109cd576101008083540402835291602001916109f8565b820191906000526020600020905b8154815290600101906020018083116109db57829003601f168201915b505050505082610bb4565b50565b60008060065414610a2657600754600654610a2191906121c2565b610a29565b60005b905090565b600560009054906101000a900460ff1615610a4857600080fd5b610afb60028054610a5890612059565b80601f0160208091040260200160405190810160405280929190818152602001828054610a8490612059565b8015610ad15780601f10610aa657610100808354040283529160200191610ad1565b820191906000526020600020905b815481529060010190602001808311610ab457829003601f168201915b505050505030604051602001610ae791906120d2565b604051602081830303815290604052610b21565b6001600560006101000a81548160ff021916908315150217905550565b50565b60045481565b6000610b2c82610c23565b90506000610b42633c3c5e9b8584607134610c57565b9050610b4d81610d92565b5050505050565b610b5c611b59565b6000610b6783610e83565b90506000610b7d6387ed0a648684607134610c57565b90506000610b8a82610d92565b9050610b94611b59565b610ba78282610ecf90919063ffffffff16565b8094505050505092915050565b6000610c12600084600067ffffffffffffffff811115610bd757610bd6611ca4565b5b6040519080825280601f01601f191660200182016040528015610c095781602001600182028036833780820191505090505b50600086610c57565b9050610c1d81610d92565b50505050565b60606000610c316040610ef5565b9050610c468382610f1c90919063ffffffff16565b610c4f81610f45565b915050919050565b606060008073fe0000000000000000000000000000000000000373ffffffffffffffffffffffffffffffffffffffff1688856000888a8c604051602001610ca396959493929190612219565b604051602081830303815290604052604051610cbf91906122c4565b600060405180830381855af49150503d8060008114610cfa576040519150601f19603f3d011682016040523d82523d6000602084013e610cff565b606091505b509150915060011515821515146040518060400160405280601181526020017f6163746f722063616c6c206661696c656400000000000000000000000000000081525090610d83576040517f08c379a0000000000000000000000000000000000000000000000000000000008152600401610d7a919061231f565b60405180910390fd5b50809250505095945050505050565b6060600080600084806020019051810190610dad9190612413565b925092509250600067ffffffffffffffff168267ffffffffffffffff161480610dea5750607167ffffffffffffffff168267ffffffffffffffff16145b610e29576040517f08c379a0000000000000000000000000000000000000000000000000000000008152600401610e20906124ce565b60405180910390fd5b60008314610e3684610f9e565b90610e77576040517f08c379a0000000000000000000000000000000000000000000000000000000008152600401610e6e919061231f565b60405180910390fd5b50809350505050919050565b60606000610e916040610ef5565b9050610ea760018261100890919063ffffffff16565b610ebe836000015182610f1c90919063ffffffff16565b610ec781610f45565b915050919050565b6000610ee4818361101890919063ffffffff16565b846000018193508290525050505050565b610efd611b6c565b610f0b8160000151836111c2565b506000816020018181525050919050565b610f29826002835161123b565b610f408183600001516113e490919063ffffffff16565b505050565b60606000826020015114610f8e576040517f08c379a0000000000000000000000000000000000000000000000000000000008152600401610f859061253a565b60405180910390fd5b8160000151600001519050919050565b60606000821215610fd857610fb282611400565b604051602001610fc291906125bc565b6040516020818303038152906040529050611003565b610fe182611400565b604051602001610ff191906125bc565b60405160208183030381529060405290505b919050565b611014826004836114ce565b5050565b6060600080600061102986866114de565b8167ffffffffffffffff169150809750819350829450505050600660ff168260ff16148061105d5750600260ff168260ff16145b61106a576110696125e2565b5b600660ff168260ff16036110b35761108286866114de565b8167ffffffffffffffff169150809750819350829450505050600260ff168260ff16146110b2576110b16125e2565b5b5b600081866110c191906121c2565b905060008267ffffffffffffffff8111156110df576110de611ca4565b5b6040519080825280601f01601f1916602001820160405280156111115781602001600182028036833780820191505090505b5090506000808890505b838110156111a45789818151811061113657611135612611565b5b602001015160f81c60f81b83838151811061115457611153612611565b5b60200101907effffffffffffffffffffffffffffffffffffffffffffffffffffffffffffff1916908160001a905350818061118e90612640565b925050808061119c90612640565b91505061111b565b508184896111b291906121c2565b9650965050505050509250929050565b6111ca611b8c565b60006020836111d991906126b7565b14611205576020826111eb91906126b7565b60206111f791906126e8565b8261120291906121c2565b91505b81836020018181525050604051808452600081528281016020018181101561122c57600080fd5b80604052505082905092915050565b60178167ffffffffffffffff1611611276576112708160058460ff16901b60ff1617846000015161166c90919063ffffffff16565b506113df565b60ff8167ffffffffffffffff16116112d4576112a9601860058460ff16901b17846000015161166c90919063ffffffff16565b506112ce8167ffffffffffffffff16600185600001516116d69092919063ffffffff16565b506113de565b61ffff8167ffffffffffffffff161161133357611308601960058460ff16901b17846000015161166c90919063ffffffff16565b5061132d8167ffffffffffffffff16600285600001516116d69092919063ffffffff16565b506113dd565b63ffffffff8167ffffffffffffffff161161139457611369601a60058460ff16901b17846000015161166c90919063ffffffff16565b5061138e8167ffffffffffffffff16600485600001516116d69092919063ffffffff16565b506113dc565b6113b5601b60058460ff16901b17846000015161166c90919063ffffffff16565b506113da8167ffffffffffffffff16600885600001516116d69092919063ffffffff16565b505b5b5b5b505050565b6113ec611b8c565b6113f883838451611763565b905092915050565b60606000600161140f84611846565b01905060008167ffffffffffffffff81111561142e5761142d611ca4565b5b6040519080825280601f01601f1916602001820160405280156114605781602001600182028036833780820191505090505b509050600082602001820190505b6001156114c3578080600190039150507f3031323334353637383961626364656600000000000000000000000000000000600a86061a8153600a85816114b7576114b6612688565b5b0494506000850361146e575b819350505050919050565b6114d983838361123b565b505050565b6000806000806114ee8686611999565b90506001856114fd91906121c2565b94506000600560e0831660ff16901c90506000601f83169050601c8160ff161061152a576115296125e2565b5b60188160ff16101561154d578181888160ff169150955095509550505050611665565b60188160ff16036115a25760006115648989611999565b905060018861157391906121c2565b975060188160ff16101561158a576115896125e2565b5b8281898160ff16915096509650965050505050611665565b60198160ff16036115e35760006115b98989611a00565b90506002886115c891906121c2565b97508281898161ffff16915096509650965050505050611665565b601a8160ff16036116265760006115fa8989611a67565b905060048861160991906121c2565b97508281898163ffffffff16915096509650965050505050611665565b601b8160ff161461163a576116396125e2565b5b60006116468989611ace565b905060088861165591906121c2565b9750828189965096509650505050505b9250925092565b611674611b8c565b60008360000151519050600060018261168d91906121c2565b9050846020015182106116b1576116b0856002836116ab919061271c565b611b35565b5b845160208382010185815381518311156116c9578282525b5050849250505092915050565b6116de611b8c565b60008460000151519050600081846116f691906121c2565b9050856020015181111561171b5761171a86600283611715919061271c565b611b35565b5b600060018561010061172d9190612891565b61173791906126e8565b905086518281018783198251161781528151841115611754578382525b50508693505050509392505050565b61176b611b8c565b825182111561177957600080fd5b600084600001515190506000838261179191906121c2565b905085602001518111156117b6576117b5866002836117b0919061271c565b611b35565b5b600080875180518560208301019350808511156117d1578482525b60208901925050505b6020861061181857805182526020826117f391906121c2565b915060208161180291906121c2565b905060208661181191906126e8565b95506117da565b60006001876020036101000a0390508019825116818451168181178552505050879450505050509392505050565b600080600090507a184f03e93ff9f4daa797ed6e38ed64bf6a1f01000000000000000083106118a4577a184f03e93ff9f4daa797ed6e38ed64bf6a1f010000000000000000838161189a57611899612688565b5b0492506040810190505b6d04ee2d6d415b85acef810000000083106118e1576d04ee2d6d415b85acef810000000083816118d7576118d6612688565b5b0492506020810190505b662386f26fc10000831061191057662386f26fc10000838161190657611905612688565b5b0492506010810190505b6305f5e1008310611939576305f5e100838161192f5761192e612688565b5b0492506008810190505b612710831061195e57612710838161195457611953612688565b5b0492506004810190505b60648310611981576064838161197757611976612688565b5b0492506002810190505b600a8310611990576001810190505b80915050919050565b60006001826119a891906121c2565b835110156119eb576040517f08c379a00000000000000000000000000000000000000000000000000000000081526004016119e290612928565b60405180910390fd5b60008260010184015190508091505092915050565b6000600282611a0f91906121c2565b83511015611a52576040517f08c379a0000000000000000000000000000000000000000000000000000000008152600401611a4990612928565b60405180910390fd5b60008260020184015190508091505092915050565b6000600482611a7691906121c2565b83511015611ab9576040517f08c379a0000000000000000000000000000000000000000000000000000000008152600401611ab090612928565b60405180910390fd5b60008260040184015190508091505092915050565b6000600882611add91906121c2565b83511015611b20576040517f08c379a0000000000000000000000000000000000000000000000000000000008152600401611b1790612928565b60405180910390fd5b60008260080184015190508091505092915050565b600082600001519050611b4883836111c2565b50611b5383826113e4565b50505050565b6040518060200160405280606081525090565b6040518060400160405280611b7f611b8c565b8152602001600081525090565b604051806040016040528060608152602001600081525090565b600073ffffffffffffffffffffffffffffffffffffffff82169050919050565b6000611bd182611ba6565b9050919050565b611be181611bc6565b82525050565b6000819050919050565b611bfa81611be7565b82525050565b6000604082019050611c156000830185611bd8565b611c226020830184611bf1565b9392505050565b6000602082019050611c3e6000830184611bf1565b92915050565b60008115159050919050565b611c5981611c44565b82525050565b6000602082019050611c746000830184611c50565b92915050565b6000604051905090565b600080fd5b600080fd5b600080fd5b6000601f19601f8301169050919050565b7f4e487b7100000000000000000000000000000000000000000000000000000000600052604160045260246000fd5b611cdc82611c93565b810181811067ffffffffffffffff82111715611cfb57611cfa611ca4565b5b80604052505050565b6000611d0e611c7a565b9050611d1a8282611cd3565b919050565b600080fd5b600080fd5b600080fd5b600067ffffffffffffffff821115611d4957611d48611ca4565b5b611d5282611c93565b9050602081019050919050565b82818337600083830152505050565b6000611d81611d7c84611d2e565b611d04565b905082815260208101848484011115611d9d57611d9c611d29565b5b611da8848285611d5f565b509392505050565b600082601f830112611dc557611dc4611d24565b5b8135611dd5848260208601611d6e565b91505092915050565b600060208284031215611df457611df3611c8e565b5b611dfe6020611d04565b9050600082013567ffffffffffffffff811115611e1e57611e1d611d1f565b5b611e2a84828501611db0565b60008301525092915050565b600060208284031215611e4c57611e4b611c84565b5b600082013567ffffffffffffffff811115611e6a57611e69611c89565b5b611e7684828501611dde565b91505092915050565b600081519050919050565b600082825260208201905092915050565b60005b83811015611eb9578082015181840152602081019050611e9e565b60008484015250505050565b6000611ed082611e7f565b611eda8185611e8a565b9350611eea818560208601611e9b565b611ef381611c93565b840191505092915050565b60006020830160008301518482036000860152611f1b8282611ec5565b9150508091505092915050565b60006020820190508181036000830152611f428184611efe565b905092915050565b6000602082019050611f5f6000830184611bd8565b92915050565b600082825260208201905092915050565b6000611f8182611e7f565b611f8b8185611f65565b9350611f9b818560208601611e9b565b611fa481611c93565b840191505092915050565b60006020820190508181036000830152611fc98184611f76565b905092915050565b611fda81611be7565b8114611fe557600080fd5b50565b600081359050611ff781611fd1565b92915050565b60006020828403121561201357612012611c84565b5b600061202184828501611fe8565b91505092915050565b7f4e487b7100000000000000000000000000000000000000000000000000000000600052602260045260246000fd5b6000600282049050600182168061207157607f821691505b6020821081036120845761208361202a565b5b50919050565b60008160601b9050919050565b60006120a28261208a565b9050919050565b60006120b482612097565b9050919050565b6120cc6120c782611bc6565b6120a9565b82525050565b60006120de82846120bb565b60148201915081905092915050565b60006040820190506121026000830185611bf1565b61210f6020830184611bf1565b9392505050565b600082825260208201905092915050565b7f546f6f206561726c790000000000000000000000000000000000000000000000600082015250565b600061215d600983612116565b915061216882612127565b602082019050919050565b6000602082019050818103600083015261218c81612150565b9050919050565b7f4e487b7100000000000000000000000000000000000000000000000000000000600052601160045260246000fd5b60006121cd82611be7565b91506121d883611be7565b92508282019050808211156121f0576121ef612193565b5b92915050565b600067ffffffffffffffff82169050919050565b612213816121f6565b82525050565b600060c08201905061222e600083018961220a565b61223b6020830188611bf1565b612248604083018761220a565b612255606083018661220a565b81810360808301526122678185611f76565b905081810360a083015261227b8184611f76565b9050979650505050505050565b600081905092915050565b600061229e82611e7f565b6122a88185612288565b93506122b8818560208601611e9b565b80840191505092915050565b60006122d08284612293565b915081905092915050565b600081519050919050565b60006122f1826122db565b6122fb8185612116565b935061230b818560208601611e9b565b61231481611c93565b840191505092915050565b6000602082019050818103600083015261233981846122e6565b905092915050565b6000819050919050565b61235481612341565b811461235f57600080fd5b50565b6000815190506123718161234b565b92915050565b612380816121f6565b811461238b57600080fd5b50565b60008151905061239d81612377565b92915050565b60006123b66123b184611d2e565b611d04565b9050828152602081018484840111156123d2576123d1611d29565b5b6123dd848285611e9b565b509392505050565b600082601f8301126123fa576123f9611d24565b5b815161240a8482602086016123a3565b91505092915050565b60008060006060848603121561242c5761242b611c84565b5b600061243a86828701612362565b935050602061244b8682870161238e565b925050604084015167ffffffffffffffff81111561246c5761246b611c89565b5b612478868287016123e5565b9150509250925092565b7f726573706f6e736520636f646563206e6f7420737570706f7274656400000000600082015250565b60006124b8601c83612116565b91506124c382612482565b602082019050919050565b600060208201905081810360008301526124e7816124ab565b9050919050565b7f496e76616c69642043424f520000000000000000000000000000000000000000600082015250565b6000612524600c83612116565b915061252f826124ee565b602082019050919050565b6000602082019050818103600083015261255381612517565b9050919050565b7f6163746f72206572726f7220636f6465202d0000000000000000000000000000815250565b600081905092915050565b6000612596826122db565b6125a08185612580565b93506125b0818560208601611e9b565b80840191505092915050565b60006125c78261255a565b6012820191506125d7828461258b565b915081905092915050565b7f4e487b7100000000000000000000000000000000000000000000000000000000600052600160045260246000fd5b7f4e487b7100000000000000000000000000000000000000000000000000000000600052603260045260246000fd5b600061264b82611be7565b91507fffffffffffffffffffffffffffffffffffffffffffffffffffffffffffffffff820361267d5761267c612193565b5b600182019050919050565b7f4e487b7100000000000000000000000000000000000000000000000000000000600052601260045260246000fd5b60006126c282611be7565b91506126cd83611be7565b9250826126dd576126dc612688565b5b828206905092915050565b60006126f382611be7565b91506126fe83611be7565b925082820390508181111561271657612715612193565b5b92915050565b600061272782611be7565b915061273283611be7565b925082820261274081611be7565b9150828204841483151761275757612756612193565b5b5092915050565b60008160011c9050919050565b6000808291508390505b60018511156127b55780860481111561279157612790612193565b5b60018516156127a05780820291505b80810290506127ae8561275e565b9450612775565b94509492505050565b6000826127ce576001905061288a565b816127dc576000905061288a565b81600181146127f257600281146127fc5761282b565b600191505061288a565b60ff84111561280e5761280d612193565b5b8360020a91508482111561282557612824612193565b5b5061288a565b5060208310610133831016604e8410600b84101617156128605782820a90508381111561285b5761285a612193565b5b61288a565b61286d848484600161276b565b9250905081840481111561288457612883612193565b5b81810290505b9392505050565b600061289c82611be7565b91506128a783611be7565b92506128d47fffffffffffffffffffffffffffffffffffffffffffffffffffffffffffffffff84846127be565b905092915050565b7f736c6963696e67206f7574206f662072616e6765000000000000000000000000600082015250565b6000612912601483612116565b915061291d826128dc565b602082019050919050565b6000602082019050818103600083015261294181612905565b905091905056fea264697066735822122072769c586178caeae4fe5494528cec881855bc0a9f58b3099966eed1291cf26864736f6c63430008110033a2646970667358221220fbc5b0ce71ed1c9dadaea5cda044feb41aab5949c959de8d6d84ce9c6330f2ba64736f6c63430008110033",
  "devdoc": {
    "kind": "dev",
    "methods": {},
    "version": 1
  },
  "userdoc": {
    "kind": "user",
    "methods": {},
    "version": 1
  },
  "storageLayout": {
    "storage": [
      {
        "astId": 8037,
        "contract": "contracts/escrow/LenderManager.sol:LenderManager",
        "label": "positions",
        "offset": 0,
        "slot": "0",
        "type": "t_mapping(t_uint256,t_struct(LendingPosition)8016_storage)"
      },
      {
        "astId": 8043,
        "contract": "contracts/escrow/LenderManager.sol:LenderManager",
        "label": "ordersForLending",
        "offset": 0,
        "slot": "1",
        "type": "t_mapping(t_uint256,t_array(t_struct(BorrowerOrders)8007_storage)dyn_storage)"
      },
      {
        "astId": 8048,
        "contract": "contracts/escrow/LenderManager.sol:LenderManager",
        "label": "escrowContracts",
        "offset": 0,
        "slot": "2",
        "type": "t_mapping(t_uint256,t_array(t_address)dyn_storage)"
      }
    ],
    "types": {
      "t_address": {
        "encoding": "inplace",
        "label": "address",
        "numberOfBytes": "20"
      },
      "t_array(t_address)dyn_storage": {
        "base": "t_address",
        "encoding": "dynamic_array",
        "label": "address[]",
        "numberOfBytes": "32"
      },
      "t_array(t_struct(BorrowerOrders)8007_storage)dyn_storage": {
        "base": "t_struct(BorrowerOrders)8007_storage",
        "encoding": "dynamic_array",
        "label": "struct ILenderManager.BorrowerOrders[]",
        "numberOfBytes": "32"
      },
      "t_mapping(t_uint256,t_array(t_address)dyn_storage)": {
        "encoding": "mapping",
        "key": "t_uint256",
        "label": "mapping(uint256 => address[])",
        "numberOfBytes": "32",
        "value": "t_array(t_address)dyn_storage"
      },
      "t_mapping(t_uint256,t_array(t_struct(BorrowerOrders)8007_storage)dyn_storage)": {
        "encoding": "mapping",
        "key": "t_uint256",
        "label": "mapping(uint256 => struct ILenderManager.BorrowerOrders[])",
        "numberOfBytes": "32",
        "value": "t_array(t_struct(BorrowerOrders)8007_storage)dyn_storage"
      },
      "t_mapping(t_uint256,t_struct(LendingPosition)8016_storage)": {
        "encoding": "mapping",
        "key": "t_uint256",
        "label": "mapping(uint256 => struct ILenderManager.LendingPosition)",
        "numberOfBytes": "32",
        "value": "t_struct(LendingPosition)8016_storage"
      },
      "t_struct(BorrowerOrders)8007_storage": {
        "encoding": "inplace",
        "label": "struct ILenderManager.BorrowerOrders",
        "members": [
          {
            "astId": 7998,
            "contract": "contracts/escrow/LenderManager.sol:LenderManager",
            "label": "borrower",
            "offset": 0,
            "slot": "0",
            "type": "t_address"
          },
          {
            "astId": 8000,
            "contract": "contracts/escrow/LenderManager.sol:LenderManager",
            "label": "loanAmount",
            "offset": 0,
            "slot": "1",
            "type": "t_uint256"
          },
          {
            "astId": 8002,
            "contract": "contracts/escrow/LenderManager.sol:LenderManager",
            "label": "startBlock",
            "offset": 0,
            "slot": "2",
            "type": "t_uint256"
          },
          {
            "astId": 8004,
            "contract": "contracts/escrow/LenderManager.sol:LenderManager",
            "label": "amountToPayEveryBlock",
            "offset": 0,
            "slot": "3",
            "type": "t_uint256"
          },
          {
            "astId": 8006,
            "contract": "contracts/escrow/LenderManager.sol:LenderManager",
            "label": "escrow",
            "offset": 0,
            "slot": "4",
            "type": "t_address"
          }
        ],
        "numberOfBytes": "160"
      },
      "t_struct(LendingPosition)8016_storage": {
        "encoding": "inplace",
        "label": "struct ILenderManager.LendingPosition",
        "members": [
          {
            "astId": 8009,
            "contract": "contracts/escrow/LenderManager.sol:LenderManager",
            "label": "lender",
            "offset": 0,
            "slot": "0",
            "type": "t_address"
          },
          {
            "astId": 8011,
            "contract": "contracts/escrow/LenderManager.sol:LenderManager",
            "label": "availableAmount",
            "offset": 0,
            "slot": "1",
            "type": "t_uint256"
          },
          {
            "astId": 8013,
            "contract": "contracts/escrow/LenderManager.sol:LenderManager",
            "label": "endTimestamp",
            "offset": 0,
            "slot": "2",
            "type": "t_uint256"
          },
          {
            "astId": 8015,
            "contract": "contracts/escrow/LenderManager.sol:LenderManager",
            "label": "interestRate",
            "offset": 0,
            "slot": "3",
            "type": "t_uint256"
          }
        ],
        "numberOfBytes": "128"
      },
      "t_uint256": {
        "encoding": "inplace",
        "label": "uint256",
        "numberOfBytes": "32"
      }
    }
  }
}